{
  "_format": "hh-sol-artifact-1",
  "contractName": "StockContract",
  "sourceName": "contracts/StockContract.sol",
  "abi": [
    {
      "anonymous": false,
      "inputs": [
        {
          "indexed": true,
          "internalType": "address",
          "name": "buyer",
          "type": "address"
        },
        {
          "indexed": false,
          "internalType": "uint256",
          "name": "amount",
          "type": "uint256"
        },
        {
          "indexed": false,
          "internalType": "uint256",
          "name": "remainingStock",
          "type": "uint256"
        }
      ],
      "name": "StockBought",
      "type": "event"
    },
    {
      "anonymous": false,
      "inputs": [
        {
          "indexed": true,
          "internalType": "address",
          "name": "from",
          "type": "address"
        },
        {
          "indexed": true,
          "internalType": "address",
          "name": "to",
          "type": "address"
        },
        {
          "indexed": false,
          "internalType": "uint256",
          "name": "amount",
          "type": "uint256"
        }
      ],
      "name": "StockTransferred",
      "type": "event"
    },
    {
      "inputs": [
        {
          "internalType": "address",
          "name": "",
          "type": "address"
        }
      ],
      "name": "balances",
      "outputs": [
        {
          "internalType": "uint256",
          "name": "",
          "type": "uint256"
        }
      ],
      "stateMutability": "view",
      "type": "function"
    },
    {
      "inputs": [
        {
          "internalType": "uint256",
          "name": "amount",
          "type": "uint256"
        }
      ],
      "name": "buyStock",
      "outputs": [],
      "stateMutability": "nonpayable",
      "type": "function"
    },
    {
      "inputs": [
        {
          "internalType": "address",
          "name": "account",
          "type": "address"
        }
      ],
      "name": "getBalance",
      "outputs": [
        {
          "internalType": "uint256",
          "name": "",
          "type": "uint256"
        }
      ],
      "stateMutability": "view",
      "type": "function"
    },
    {
      "inputs": [],
      "name": "getRemainingStock",
      "outputs": [
        {
          "internalType": "uint256",
          "name": "",
          "type": "uint256"
        }
      ],
      "stateMutability": "view",
      "type": "function"
    },
    {
      "inputs": [
        {
          "internalType": "address",
          "name": "account",
          "type": "address"
        }
      ],
      "name": "getStocksByAddress",
      "outputs": [
        {
          "internalType": "uint256",
          "name": "",
          "type": "uint256"
        }
      ],
      "stateMutability": "view",
      "type": "function"
    },
    {
      "inputs": [
        {
          "internalType": "address",
          "name": "account",
          "type": "address"
        }
      ],
      "name": "getTransactionHistory",
      "outputs": [
        {
          "internalType": "uint256",
          "name": "",
          "type": "uint256"
        }
      ],
      "stateMutability": "view",
      "type": "function"
    },
    {
      "inputs": [
        {
          "internalType": "address",
          "name": "",
          "type": "address"
        }
      ],
      "name": "stockHistory",
      "outputs": [
        {
          "internalType": "uint256",
          "name": "",
          "type": "uint256"
        }
      ],
      "stateMutability": "view",
      "type": "function"
    },
    {
      "inputs": [],
      "name": "stockName",
      "outputs": [
        {
          "internalType": "string",
          "name": "",
          "type": "string"
        }
      ],
      "stateMutability": "view",
      "type": "function"
    },
    {
      "inputs": [],
      "name": "totalStock",
      "outputs": [
        {
          "internalType": "uint256",
          "name": "",
          "type": "uint256"
        }
      ],
      "stateMutability": "view",
      "type": "function"
    },
    {
      "inputs": [
        {
          "internalType": "address",
          "name": "to",
          "type": "address"
        },
        {
          "internalType": "uint256",
          "name": "amount",
          "type": "uint256"
        }
      ],
      "name": "transferStock",
      "outputs": [],
      "stateMutability": "nonpayable",
      "type": "function"
    }
  ],
  "bytecode": "0x60806040526040518060400160405280600481526020017f32333330000000000000000000000000000000000000000000000000000000008152506000908161004891906102b1565b506103e860015534801561005b57600080fd5b50610383565b600081519050919050565b7f4e487b7100000000000000000000000000000000000000000000000000000000600052604160045260246000fd5b7f4e487b7100000000000000000000000000000000000000000000000000000000600052602260045260246000fd5b600060028204905060018216806100e257607f821691505b6020821081036100f5576100f461009b565b5b50919050565b60008190508160005260206000209050919050565b60006020601f8301049050919050565b600082821b905092915050565b60006008830261015d7fffffffffffffffffffffffffffffffffffffffffffffffffffffffffffffffff82610120565b6101678683610120565b95508019841693508086168417925050509392505050565b6000819050919050565b6000819050919050565b60006101ae6101a96101a48461017f565b610189565b61017f565b9050919050565b6000819050919050565b6101c883610193565b6101dc6101d4826101b5565b84845461012d565b825550505050565b600090565b6101f16101e4565b6101fc8184846101bf565b505050565b5b81811015610220576102156000826101e9565b600181019050610202565b5050565b601f82111561026557610236816100fb565b61023f84610110565b8101602085101561024e578190505b61026261025a85610110565b830182610201565b50505b505050565b600082821c905092915050565b60006102886000198460080261026a565b1980831691505092915050565b60006102a18383610277565b9150826002028217905092915050565b6102ba82610061565b67ffffffffffffffff8111156102d3576102d261006c565b5b6102dd82546100ca565b6102e8828285610224565b600060209050601f83116001811461031b5760008415610309578287015190505b6103138582610295565b86555061037b565b601f198416610329866100fb565b60005b828110156103515784890151825560018201915060208501945060208101905061032c565b8683101561036e578489015161036a601f891682610277565b8355505b6001600288020188555050505b505050505050565b610c8b806103926000396000f3fe608060405234801561001057600080fd5b506004361061009e5760003560e01c80637f59e534116100665780637f59e5341461015b5780637fae46b714610177578063b1a951da146101a7578063d20cf0e8146101c5578063f8b2cb4f146101f55761009e565b80630923aaeb146100a3578063148f2a9c146100c15780631ff43c19146100dd57806327e235e3146100fb578063791b7a6b1461012b575b600080fd5b6100ab610225565b6040516100b8919061078f565b60405180910390f35b6100db60048036038101906100d691906107db565b61022f565b005b6100e56103d1565b6040516100f29190610898565b60405180910390f35b61011560048036038101906101109190610918565b61045f565b604051610122919061078f565b60405180910390f35b61014560048036038101906101409190610918565b610477565b604051610152919061078f565b60405180910390f35b61017560048036038101906101709190610945565b61048f565b005b610191600480360381019061018c9190610918565b610695565b60405161019e919061078f565b60405180910390f35b6101af6106de565b6040516101bc919061078f565b60405180910390f35b6101df60048036038101906101da9190610918565b6106e4565b6040516101ec919061078f565b60405180910390f35b61020f600480360381019061020a9190610918565b61072d565b60405161021c919061078f565b60405180910390f35b6000600154905090565b60018114610272576040517f08c379a0000000000000000000000000000000000000000000000000000000008152600401610269906109d1565b60405180910390fd5b8060015410156102b7576040517f08c379a00000000000000000000000000000000000000000000000000000000081526004016102ae90610a3d565b60405180910390fd5b80600160008282546102c99190610a8c565b9250508190555080600260003373ffffffffffffffffffffffffffffffffffffffff1673ffffffffffffffffffffffffffffffffffffffff168152602001908152602001600020600082825461031f9190610ac0565b9250508190555080600360003373ffffffffffffffffffffffffffffffffffffffff1673ffffffffffffffffffffffffffffffffffffffff16815260200190815260200160002060008282546103759190610ac0565b925050819055503373ffffffffffffffffffffffffffffffffffffffff167f1560b71ca6695825842f12e8721dc7f437286c08deb7c7ebc708bb3bdc3d01c5826001546040516103c6929190610af4565b60405180910390a250565b600080546103de90610b4c565b80601f016020809104026020016040519081016040528092919081815260200182805461040a90610b4c565b80156104575780601f1061042c57610100808354040283529160200191610457565b820191906000526020600020905b81548152906001019060200180831161043a57829003601f168201915b505050505081565b60026020528060005260406000206000915090505481565b60036020528060005260406000206000915090505481565b80600260003373ffffffffffffffffffffffffffffffffffffffff1673ffffffffffffffffffffffffffffffffffffffff168152602001908152602001600020541015610511576040517f08c379a000000000000000000000000000000000000000000000000000000000815260040161050890610bc9565b60405180910390fd5b600073ffffffffffffffffffffffffffffffffffffffff168273ffffffffffffffffffffffffffffffffffffffff1603610580576040517f08c379a000000000000000000000000000000000000000000000000000000000815260040161057790610c35565b60405180910390fd5b80600260003373ffffffffffffffffffffffffffffffffffffffff1673ffffffffffffffffffffffffffffffffffffffff16815260200190815260200160002060008282546105cf9190610a8c565b9250508190555080600260008473ffffffffffffffffffffffffffffffffffffffff1673ffffffffffffffffffffffffffffffffffffffff16815260200190815260200160002060008282546106259190610ac0565b925050819055508173ffffffffffffffffffffffffffffffffffffffff163373ffffffffffffffffffffffffffffffffffffffff167f6bca8fa57973baecf480f0f784a6c6549e10cd7673db79b691a8051864dd29c983604051610689919061078f565b60405180910390a35050565b6000600260008373ffffffffffffffffffffffffffffffffffffffff1673ffffffffffffffffffffffffffffffffffffffff168152602001908152602001600020549050919050565b60015481565b6000600360008373ffffffffffffffffffffffffffffffffffffffff1673ffffffffffffffffffffffffffffffffffffffff168152602001908152602001600020549050919050565b6000600260008373ffffffffffffffffffffffffffffffffffffffff1673ffffffffffffffffffffffffffffffffffffffff168152602001908152602001600020549050919050565b6000819050919050565b61078981610776565b82525050565b60006020820190506107a46000830184610780565b92915050565b600080fd5b6107b881610776565b81146107c357600080fd5b50565b6000813590506107d5816107af565b92915050565b6000602082840312156107f1576107f06107aa565b5b60006107ff848285016107c6565b91505092915050565b600081519050919050565b600082825260208201905092915050565b60005b83811015610842578082015181840152602081019050610827565b60008484015250505050565b6000601f19601f8301169050919050565b600061086a82610808565b6108748185610813565b9350610884818560208601610824565b61088d8161084e565b840191505092915050565b600060208201905081810360008301526108b2818461085f565b905092915050565b600073ffffffffffffffffffffffffffffffffffffffff82169050919050565b60006108e5826108ba565b9050919050565b6108f5816108da565b811461090057600080fd5b50565b600081359050610912816108ec565b92915050565b60006020828403121561092e5761092d6107aa565b5b600061093c84828501610903565b91505092915050565b6000806040838503121561095c5761095b6107aa565b5b600061096a85828601610903565b925050602061097b858286016107c6565b9150509250929050565b7f6a75737420627579203120636f696e0000000000000000000000000000000000600082015250565b60006109bb600f83610813565b91506109c682610985565b602082019050919050565b600060208201905081810360008301526109ea816109ae565b9050919050565b7f6e6f7420656e7567687400000000000000000000000000000000000000000000600082015250565b6000610a27600a83610813565b9150610a32826109f1565b602082019050919050565b60006020820190508181036000830152610a5681610a1a565b9050919050565b7f4e487b7100000000000000000000000000000000000000000000000000000000600052601160045260246000fd5b6000610a9782610776565b9150610aa283610776565b9250828203905081811115610aba57610ab9610a5d565b5b92915050565b6000610acb82610776565b9150610ad683610776565b9250828201905080821115610aee57610aed610a5d565b5b92915050565b6000604082019050610b096000830185610780565b610b166020830184610780565b9392505050565b7f4e487b7100000000000000000000000000000000000000000000000000000000600052602260045260246000fd5b60006002820490506001821680610b6457607f821691505b602082108103610b7757610b76610b1d565b5b50919050565b7f4e6f7420656e6f7567682073746f636b20746f207472616e7366657200000000600082015250565b6000610bb3601c83610813565b9150610bbe82610b7d565b602082019050919050565b60006020820190508181036000830152610be281610ba6565b9050919050565b7f496e76616c696420616464726573730000000000000000000000000000000000600082015250565b6000610c1f600f83610813565b9150610c2a82610be9565b602082019050919050565b60006020820190508181036000830152610c4e81610c12565b905091905056fea26469706673582212202006338238b742c82ce82021b9f01fb385646097a31054ca236f2a062ce42e6764736f6c634300081c0033",
  "linkReferences": {},
  "deployedLinkReferences": {}
}